:100000000C9446000C9465000C9465000C946500FB
:100010000C9465000C9465000C9465000C946500CC
:100020000C9465000C9465000C9465000C946500BC
:100030000C9465000C9465000C9465000C946500AC
:100040000C9465000C9465000C9465000C9465009C
:100050000C9465000C9465000C9465000C9465008C
:100060000C9465000C9465000C9465000C9465007C
:100070000C9465000C9465000C9465000C9465006C
:100080000C9465000C9465000C94650011241FBE4F
:10009000CFEFD0E4DEBFCDBF11E0A0E0B1E0EEE2F3
:1000A000F1E000E00BBF02C007900D92A031B10754
:1000B000D9F711E0A0E1B1E001C01D92A231B10772
:1000C000E1F70E947E000C9495000C940000CF9301
:1000D000C82F8A3019F48DE00E9467009091C0000B
:1000E00095FFFCCFC093C60080E090E0CF910895CB
:1000F000EAE7F0E08081806E8083089511B88FEF89
:1001000082B984B915B88AB91BB80E947800809169
:10011000780090917900909311018093100121E073
:0E012000C09708F420E025B9F2CFF894FFCF85
:10012E0000000002000000006700000000006000F8
:00000001FF
